S00B00004C4142372E6162738A
S123E000450140949AC61802AA01A47FC7180210011201140115011500170019001B006E9C
S123E020FF036E00826E0102160217026E00956E00966E30976EBEA0CDE2E2CDE3FDCDE055
S123E040B46E006ECDE450CDE951CCE04A8B8987450073F627044AF720F9E60127084AE719
S123E06001A6FFF720EDE602270C4AE704A6FFE702A6FFF720DD86888A8187B60FB703B6A6
S123E08000B7028687A60FB703C60060A407B702B60262A40FC70061A608B702868187A62D
S123E0A0FFB703C6006162A4F0CA0060B702AA08B70286813F633F62140116011400160098
S123E0C0811500CDE17C170081150016001400CDE17CCDE17C81AE08BF6249240C1400CD9F
S123E0E0E1791600CDE17C20071500CDE17920F217003A62270220E214001501CDE17916C8
S123E10000CDE17C05000017001401813F63AE08BF6215011700CDE17C38631600CDE17977
S123E1200500041063200017003A6226E914014100062000150020021400CDE1791600CDAC
S123E140E17C1700B663813F63AE08BF6215011700CDE17C38631600CDE1790500C91063C4
S123E16020C517003A6226AE14011400CDE1791600CDE17C1700B663819D9D819D9D9D9DBF
S123E1809D8187C60064C70066C60065B767A602C70060A60EC70061CDE09EA603C7006070
S123E1A0CDE084C6006143A40FC70064A602C70060A60DC70061CDE09EA603C70060CDE070
S123E1C084C600614362A4F0CA0064C70064A602C70060A60BC70061CDE09EA603C700603B
S123E1E0CDE084C6006143A40FC70065A602C70060A607C70061CDE09EA603C70060CDE035
S123E20084C600614362A4F0CA0065C700658681C6006643C4006441002DC70068C6006852
S123E220A4FE2603A60181C60068A4FD2603A60281C60068A4FB2603A60381C60068A4F7DD
S123E2402607A60A8120022028C60068A4EF2603A60481C60068A4DF2603A60581C60068A9
S123E260A4BF2603A60681C60068A47F2603A60B81B66743C4006541002DC70068C60068E1
S123E280A4FE2603A60781C60068A4FD2603A60881C60068A4FB2603A60981C60068A4F76B
S123E2A02607A60C8120022028C60068A4EF2603A60E81C60068A4DF2603A60081C6006842
S123E2C0A4BF2603A60F81C60068A47F2603A60D81A6FF81CDE450CDE182CDE21041FF0173
S123E2E0818187B601AA03B701450073A600E702A613E701A688F7CDE04DA603CDE37C4554
S123E3000073A600E702A613E701A688F7CDE04DA603CDE37C450073A600E702A613E7017A
S123E320A688F7CDE04DA603CDE37CA602CDE37CA602CDE37CA608CDE37CA600CDE37CA6EB
S123E3400CCDE37CA600CDE37C450073A600E702A613E701A688F7CDE04DA601CDE37C4590
S123E3600073A600E702A613E701A688F7CDE04DA600CDE37CA606CDE37C86818B89C7004B
S123E38069B600A4FCB700C6006962A403BA00B700C60069A40FC70061A604C70060CDE0D2
S123E3A09E450073A600E702A600E701A60AF7CDE04D888A818B89C7006A62A40FAA20CDC1
S123E3C0E37CC6006AA40FAA20CDE37C450073A600E702A600E701A6FAF7CDE04D888A8108
S123E3E0B76DF6CDE3B58986AB0187888B86A900878AB66D4AB76D26E981AB3081450073D0
S123E400A600E702A613E701A688F7CDE04DA600CDE37CA601CDE37C450073A600E702A617
S123E42013E701A688F7CDE04D81B76C62A40FCDE37CB66CA40FCDE37C81A608CDE37CA6D7
S123E44000CDE37C81A60CCDE37CA600CDE37C8187A600C70060C6006EA40FC70061CDE0CA
S123E4609EA601C70060C6006E62A40FC70061CDE09E868181CDE0C1A690CDE0D6A600CD4E
S123E480E0D6CDE0C9CDE17CCDE17CCDE0C1A691CDE0D6A601CDE10CB76FA600CDE10CB732
S123E4A070CDE17CCDE0C9556FAE80B67052B77181B671A11B250BA01BB772A633CDE3B500
S123E4C02009AB49B772A632CDE3B5B67245000A52CDE3FACDE3B58B86CDE3FACDE3B5813C
S123E4E0B67145000A52CDE3FACDE3B58B86CDE3FACDE3B5816EFF786EFF796E207A6E203F
S123E5007BCDE3FDA645CDE3B5A66ECDE3B5A674CDE3B5A665CDE3B5A672CDE3B5A620CD07
S123E520E3B5A654CDE3B5A673CDE3B5A665CDE3B5A674CDE3B5A63FCDE3B5CDE445A64548
S123E540CDE3B5A66ECDE3B5A674CDE3B5A665CDE3B5A672CDE3B5A620CDE3B5A631CDE3BB
S123E560B5A630CDE3B5A62DCDE3B5A634CDE3B5A630CDE3B5A620CDE3B5A643CDE3B5CDAF
S123E580E2D4A10E273FA10F273FA10A27F1A10B27EDA10C27E9A10D27E5A1002731A10101
S123E5A02736A102273BA1032740A1042745A105274AA106274FA1072754A1082759A109AF
S123E5C0275ECCE57F81CCE57FCDEC4ECCE4F56E00766E3077CCE62C6E01766E3177CCE6A1
S123E5E02C6E02766E3277CCE62C6E03766E3377CCE62C6E04766E3477CCE62C6E05766EFD
S123E6003577CCE62C6E06766E3677CCE62C6E07766E3777CCE62C6E08766E3877CCE62CBD
S123E6206E09766E3977CCE62CCCE678B679A1FF2730B678A1FF2721CDE66BB679AE0A4240
S123E640BB78C7007CA6CECDE42AC6007BCDE3B5C6007ACDE3B5CCE57F4E76784E777ACC2F
S123E660E63B4E76794E777BCCE63B4E78794E7A7B4E76784E777A81CDE43A6EFF786EFF50
S123E680796E207A6E207B6EFF766E2077A645CDE3B5A66ECDE3B5A674CDE3B5A665CDE301
S123E6A0B5A672CDE3B5A620CDE3B5A654CDE3B5A673CDE3B5A665CDE3B5A674CDE3B5A687
S123E6C03FCDE3B5A620CDE3B5A645CDE3B5A672CDE3B5A672CDE3B5A620CDE3B5CCE5C67B
S123E6E06EFF7ECDE3FDA642CDE3B5A63ACDE3B5A620CDE3B5A654CDE3B5A645CDE3B5A66C
S123E70043CDE3B5A620CDE3B5A666CDE3B5A675CDE3B5A66ECDE3B5A663CDE3B5A674CD63
S123E720E3B5A669CDE3B5A66FCDE3B5A66ECDE3B5A63FCDE3B5CDE445A631CDE3B5A62094
S123E740CDE3B5A62DCDE3B5A648CDE3B5A665CDE3B5A661CDE3B5A674CDE3B5A62CCDE3E8
S123E760B5A620CDE3B5A630CDE3B5A620CDE3B5A62DCDE3B5A643CDE3B5A66FCDE3B5A6A9
S123E7806FCDE3B5A66CCDE3B5CDE2D4A10E272FA10F2717A1002707A1012709CCE7896E69
S123E7A0007ECCE7896E017ECCE789C6007EA1012707A1002703CCE789CDEDADCCE6E081DD
S123E7C06EFF816EFF826E20836E2084CDE3FDA643CDE3B5A63ACDE3B5A620CDE3B5A654D0
S123E7E0CDE3B5A661CDE3B5A672CDE3B5A667CDE3B5A665CDE3B5A674CDE3B5A620CDE3F0
S123E800B5A654CDE3B5A665CDE3B5A66DCDE3B5A670CDE3B5A63FCDE3B5CDE445A645CD85
S123E820E3B5A66ECDE3B5A674CDE3B5A665CDE3B5A672CDE3B5A620CDE3B5A631CDE3B5F0
S123E840A630CDE3B5A62DCDE3B5A634CDE3B5A630CDE3B5A620CDE3B5A643CDE3B5CDE29F
S123E860D4A10E273FA10F273CA10A27F1A10B27EDA10C27E9A10D27E5A100272EA10127DF
S123E88033A1022738A103273DA1042742A1052747A106274CA1072751A1082756A10927E4
S123E8A05BCCE85E81CDF1F0CCE7C06E007F6E3080CCE9056E017F6E3180CCE9056E027FCA
S123E8C06E3280CCE9056E037F6E3380CCE9056E047F6E3480CCE9056E057F6E3580CCE9F8
S123E8E0056E067F6E3680CCE9056E077F6E3780CCE9056E087F6E3880CCE9056E097F6E32
S123E9003980CCE905B682A1FF2730B681A1FF2721CDE944B682AE0A42BB81C70085A6CE0A
S123E920CDE42AC60084CDE3B5C60083CDE3B5CCE85E4E7F814E8083CCE9144E7F824E8004
S123E94084CCE9144E81824E83844E7F814E808381CDE3FDA64DCDE3B5A66FCDE3B5A66417
S123E960CDE3B5A665CDE3B5A63ACDE3B5A620CDE3B5A641CDE3B5A62CCDE3B5A642CDE333
S123E980B5A62CCDE3B5A643CDE3B5A63FCDE3B5CDE2D4A10A270BA10B270DA10C270FCC00
S123E9A0E990CDE4F5CCE951CDE6E0CCE951CDE7C0CCE95181CDE9B9816E00866E00876E53
S123E9C000886E00896E008A6E008B6E008C6E018D6E008E6E018F6E00906E0191CDEA2FEF
S123E9E0816E00926E0093C60087B793C60086AE0A42BB93B7938986B992B792C60089AE7C
S123EA003C42BB93B7938986B992B792815592AE64B69352CDE3FACDE3B58B8645000A5263
S123EA20CDE3FACDE3B58B86CDE3FACDE3B581CDE0C1A6D0CDE0D6A600CDE0D6C6008662E4
S123EA40A470CA0087CDE0D6C6008862A470CA0089CDE0D6C6008A62A430CA008BCDE0D6D2
S123EA60A601CDE0D6C6008C62A430CA008DCDE0D6C6008E62A410AA80CA008FCDE0D6C6D0
S123EA80009062A4F0CA0091CDE0D6CDE0C9CDE0C1A6D0CDE0D6A600CDE0D6CDE0C96E061E
S123EAA096CDE0C1A6D1CDE0D6A601CDE10CC7008762C70086A601CDE10CC7008962C7001C
S123EAC088A601CDE10CC7008B62C7008AA601CDE10CA601CDE10CC7008D62C7008CA601D2
S123EAE0CDE10CC7008F62C7008EA600CDE10CC7009162C70090CDE0C9CDEB1081C60086CF
S123EB00CDE3FACDE3B5C60087CDE3FACDE3B581C60086A407C70086C60087A40FC7008773
S123EB20C60088A407C70088C60089A40FC70089C6008AA403C7008AC6008BA40FC7008B99
S123EB40C6008CA403C7008CC6008DA40FC7008DC6008EA401C7008EC6008FA40FC7008F5F
S123EB60C60090A40FC70090C60091A40FC70091C6008781CDE3FDCDE43A45F3C4C6F3D4E0
S123EB80CDE3E0CDE44545F3D5C6F3E5CDE3E0A688CDE42ACDE2D4C7008ECDE2D4C7008FF6
S123EBA0A68BCDE42ACDE2D4C7008CCDE2D4C7008DA68ECDE42ACDE2D4C70090CDE2D4C765
S123EBC00091A6C8CDE42ACDE2D4C7008ACDE2D4C7008BA6CBCDE42ACDE2D4C70088CDE2E1
S123EBE0D4C70089A6CECDE42ACDE2D4C70086CDE2D4C7008781A648CDE3B5A665CDE3B5B9
S123EC00A661CDE3B5A674CDE3B5A669CDE3B5A66ECDE3B5A667CDE3B56E026ECDE450CCFB
S123EC20EC70A643CDE3B5A66FCDE3B5A66FCDE3B5A66CCDE3B5A669CDE3B5A66ECDE3B5CE
S123EC40A667CDE3B56E016ECDE450CCEC706E009ACDE9B9CDE3FDA641CDE3B5A63ACDE338
S123EC60B5A620CDE3B5B698C1007C9389CCEC22A620CDE3B5A674CDE3B5A66FCDE3B5A665
S123EC8020CDE3B5C6007BCDE3B5C6007ACDE3B5CDE445A654CDE3B5A639CDE3B5A632CD62
S123ECA0E3B5A63ACDE3B5A620CDE3B5CDE2D4A10E2734CDED4ACDEA8EB1972603CCECAC9D
S123ECC0B797CDED4AA6C6CDE42ACDE475B798CDE4E0A643CDE3B5B698A132270AB698C1E2
S123ECE0007C270ACCECAC6E006ECDE450814E019ACCECF4A603CDE42AA64FCDE3B5A66622
S123ED00CDE3B5A666CDE3B5A620CDE3B5A620CDE3B5A620CDE3B5A620CDE3B5A620CDE3F7
S123ED20B5A620CDE3B5A620CDE3B5A620CDE3B56E006ECDE450CCECAC4E73723A7127094A
S123ED404E72733A7327F520FA816E10716E1073CDED396E10716E1073CDED396E10716E15
S123ED601073CDED396E10716E1073CDED3981CDED4ACDED4ACDED4ACDED4ACDED4ACDEDF7
S123ED804ACDED4ACDED4ACDED4ACDED4A81CDED6FCDED6FCDED6FCDED6FCDED6FCDED6F9E
S123EDA0CDED6FCDED6FCDED6FCDED6F816EFF9D6EFF9E6E209F6E20A0CDE3FDA654CDE363
S123EDC0B5A669CDE3B5A66DCDE3B5A665CDE3B5A620CDE3B5A669CDE3B5A66ECDE3B5A660
S123EDE020CDE3B5A673CDE3B5A665CDE3B5A663CDE3B5A66FCDE3B5A66ECDE3B5A664CD64
S123EE00E3B5A673CDE3B5A63FCDE3B5CDE445A645CDE3B5A66ECDE3B5A674CDE3B5A66545
S123EE20CDE3B5A672CDE3B5A620CDE3B5A630CDE3B5A62DCDE3B5A636CDE3B5A630CDE387
S123EE40B5A63ACDE3B5CDE2D4A10E273FA10F273CA10A27F1A10B27EDA10C27E9A10D27F4
S123EE60E5A100272EA1012733A1022738A103273DA1042742A1052747A106274CA10727A2
S123EE8051A1082756A109275BCCEE4681CDEF91CCEDAD6E009B6E309CCCEEED6E019B6E35
S123EEA0319CCCEEED6E029B6E329CCCEEED6E039B6E339CCCEEED6E049B6E349CCCEEED0A
S123EEC06E059B6E359CCCEEED6E069B6E369CCCEEED6E079B6E379CCCEEED6E089B6E3895
S123EEE09CCCEEED6E099B6E399CCCEEEDB69EA1FF2730B69DA1FF2721CDEF2CB69EAE0A55
S123EF0042BB9DC700A1A6CDCDE42AC600A0CDE3B5C6009FCDE3B5CCEE464E9B9D4E9C9FF9
S123EF20CCEEFC4E9B9E4E9CA0CCEEFC4E9D9E4E9FA04E9B9D4E9C9F81A648CDE3B5A6654C
S123EF40CDE3B5A661CDE3B5A674CDE3B5A669CDE3B5A66ECDE3B5A667CDE3B56E026ECD53
S123EF60E450CCEFB1A643CDE3B5A66FCDE3B5A66FCDE3B5A66CCDE3B5A669CDE3B5A66EAC
S123EF80CDE3B5A667CDE3B56E016ECDE450CCEFB1CDE9B9CDE3FDA642CDE3B5A63ACDE353
S123EFA0B5A620CDE3B5C6007EA10027B8A1012788A620CDE3B5A654CDE3B5A63DCDE3B586
S123EFC0CDEAFDCDE445A654CDE3B5A639CDE3B5A632CDE3B5A63ACDE3B5A620CDE3B5CD66
S123EFE0E2D4A10E274ECDF105CDEA8EB1A22603CCEFDFB7A2C60086AE0A42CB0087B7A4C9
S123F000C100A1272FCDF105CDE43AC6007EA1002729A1012728CDE445A6C6CDE42ACDE472
S123F02075B7A3CDE4E0A643CDE3B5B6A3A1322703CCEFDF6E006ECDE45081CCF099A64293
S123F040CDE3B5A63ACDE3B5A620CDE3B5A648CDE3B5A665CDE3B5A661CDE3B5A674CDE3DE
S123F060B5A669CDE3B5A66ECDE3B5A667CDE3B5A620CDE3B5A654CDE3B5A63DCDE3B5C6E0
S123F0800086CDE3FACDE3B5C60087CDE3FACDE3B5A620CDE3B5CCF016A642CDE3B5A63A51
S123F0A0CDE3B5A620CDE3B5A643CDE3B5A66FCDE3B5A66FCDE3B5A66CCDE3B5A669CDE344
S123F0C0B5A66ECDE3B5A667CDE3B5A620CDE3B5A654CDE3B5A63DCDE3B5C60086CDE3FAC4
S123F0E0CDE3B5C60087CDE3FACDE3B5A620CDE3B5CCF0164E73723A7127094E72733A7360
S123F10027F520FA816E10716E1073CDF0F46E10716E1073CDF0F46E10716E1073CDF0F481
S123F1206E10716E1073CDF0F481CDF105CDF105CDF105CDF105CDF105CDF105CDF105CD97
S123F140F105CDF105CDF10581CDF12ACDF12ACDF12ACDF12ACDF12ACDF12ACDF12ACDF198
S123F1602ACDF12ACDF12A816E00A8CDE43AA643CDE3B5A63ACDE3B5A620CDE3B5A648CD96
S123F180E3B5A665CDE3B5A661CDE3B5A674CDE3B5A669CDE3B5A66ECDE3B5A667CDE3B519
S123F1A06E026ECDE450CCF2126E00A8CDE43AA643CDE3B5A63ACDE3B5A620CDE3B5A643F4
S123F1C0CDE3B5A66FCDE3B5A66FCDE3B5A66CCDE3B5A669CDE3B5A66ECDE3B5A667CDE3B1
S123F1E0B56E016ECDE450CCF212CCF168CCF1A96E00A8CDE9B9CDE3FDA643CDE3B5A63ABD
S123F200CDE3B5A620CDE3B5B6A6C1008593DBCCF1A9A620CDE3B5A674CDE3B5A66FCDE375
S123F220B5A620CDE3B5C60084CDE3B5C60083CDE3B5CDE445A654CDE3B5A639CDE3B5A64E
S123F24032CDE3B5A63ACDE3B5A620CDE3B5CDE2D4A10E2734CDF34FCDEA8EB1A52603CC77
S123F260F24EB7A5CDF34FA6C6CDE42ACDE475B7A6CDE4E0A643CDE3B5B6A6A132270AB620
S123F280A6C10085270ACCF24E6E006ECDE450814E01A8CCF29CCCF1EACCF1EDCDE43AA6B0
S123F2A043CDE3B5A63ACDE3B5A620CDE3B5A648CDE3B5A66FCDE3B5A66CCDE3B5A664CD17
S123F2C0E3B5A669CDE3B5A66ECDE3B5A667CDE3B5A620CDE3B5A661CDE3B5A674CDE3B51D
S123F2E0A620CDE3B5C60084CDE3B5C60083CDE3B56E006ECDE450CCF2FACDE2D4A10E2794
S123F30088CDF34FCDEA8EB1A5260CB6A6C1008591842685CCF2FAB7A5CDF34FA6C6CDE4E3
S123F3202ACDE475B7A6CDE4E0A643CDE3B5B6A6A1322703CCF2FA6E006ECDE450814E730D
S123F340723A7127094E72733A7327F520FA816E10716E1073CDF33E6E10716E1073CDF347
S123F3603E6E10716E1073CDF33E6E10716E1073CDF33E81CDF34FCDF34FCDF34FCDF34FD2
S123F380CDF34FCDF34FCDF34FCDF34FCDF34FCDF34F81CDF374CDF374CDF374CDF374CDF1
S123F3A0F374CDF374CDF374CDF374CDF374CDF3748144617465206973200854696D65200C
S123F3C0697320085365742020203A204D4D2F44442F595910436C6F636B203A2048483ACD
S109F3E04D4D3A53531099
S105FFFEE0001D
S9030000FC
