S00B00004C4142372E6162738A
S123E000450140949AC61802AA01A47FC7180210011201140115011500170019001B006E9C
S123E020FF036E00826E0102160217026E00956E00966E30976EBEA0CDE2E2CDE3FDCDE055
S123E040B46E006ECDE450CDE7EFCCE04A8B8987450073F627044AF720F9E60127084AE77D
S123E06001A6FFF720EDE602270C4AE704A6FFE702A6FFF720DD86888A8187B60FB703B6A6
S123E08000B7028687A60FB703C60060A407B702B60262A40FC70061A608B702868187A62D
S123E0A0FFB703C6006162A4F0CA0060B702AA08B70286813F633F62140116011400160098
S123E0C0811500CDE17C170081150016001400CDE17CCDE17C81AE08BF6249240C1400CD9F
S123E0E0E1791600CDE17C20071500CDE17920F217003A62270220E214001501CDE17916C8
S123E10000CDE17C05000017001401813F63AE08BF6215011700CDE17C38631600CDE17977
S123E1200500041063200017003A6226E914014100062000150020021400CDE1791600CDAC
S123E140E17C1700B663813F63AE08BF6215011700CDE17C38631600CDE1790500C91063C4
S123E16020C517003A6226AE14011400CDE1791600CDE17C1700B663819D9D819D9D9D9DBF
S123E1809D8187C60064C70066C60065B767A602C70060A60EC70061CDE09EA603C7006070
S123E1A0CDE084C6006143A40FC70064A602C70060A60DC70061CDE09EA603C70060CDE070
S123E1C084C600614362A4F0CA0064C70064A602C70060A60BC70061CDE09EA603C700603B
S123E1E0CDE084C6006143A40FC70065A602C70060A607C70061CDE09EA603C70060CDE035
S123E20084C600614362A4F0CA0065C700658681C6006643C4006441002DC70068C6006852
S123E220A4FE2603A60181C60068A4FD2603A60281C60068A4FB2603A60381C60068A4F7DD
S123E2402607A60A8120022028C60068A4EF2603A60481C60068A4DF2603A60581C60068A9
S123E260A4BF2603A60681C60068A47F2603A60B81B66743C4006541002DC70068C60068E1
S123E280A4FE2603A60781C60068A4FD2603A60881C60068A4FB2603A60981C60068A4F76B
S123E2A02607A60C8120022028C60068A4EF2603A60E81C60068A4DF2603A60081C6006842
S123E2C0A4BF2603A60F81C60068A47F2603A60D81A6FF81CDE450CDE182CDE21041FF0173
S123E2E0818187B601AA03B701450073A600E702A613E701A688F7CDE04DA603CDE37C4554
S123E3000073A600E702A613E701A688F7CDE04DA603CDE37C450073A600E702A613E7017A
S123E320A688F7CDE04DA603CDE37CA602CDE37CA602CDE37CA608CDE37CA600CDE37CA6EB
S123E3400CCDE37CA600CDE37C450073A600E702A613E701A688F7CDE04DA601CDE37C4590
S123E3600073A600E702A613E701A688F7CDE04DA600CDE37CA606CDE37C86818B89C7004B
S123E38069B600A4FCB700C6006962A403BA00B700C60069A40FC70061A604C70060CDE0D2
S123E3A09E450073A600E702A600E701A60AF7CDE04D888A818B89C7006A62A40FAA20CDC1
S123E3C0E37CC6006AA40FAA20CDE37C450073A600E702A600E701A6FAF7CDE04D888A8108
S123E3E0B76DF6CDE3B58986AB0187888B86A900878AB66D4AB76D26E981AB3081450073D0
S123E400A600E702A613E701A688F7CDE04DA600CDE37CA601CDE37C450073A600E702A617
S123E42013E701A688F7CDE04D81B76C62A40FCDE37CB66CA40FCDE37C81A608CDE37CA6D7
S123E44000CDE37C81A60CCDE37CA600CDE37C8187A600C70060C6006EA40FC70061CDE0CA
S123E4609EA601C70060C6006E62A40FC70061CDE09E868181CDE0C1A690CDE0D6A600CD4E
S123E480E0D6CDE0C9CDE17CCDE17CCDE0C1A691CDE0D6A601CDE10CB76FA600CDE10CB732
S123E4A070CDE17CCDE0C9556FAE80B67052B77181B671A11B250BA01BB772A633CDE3B500
S123E4C02009AB49B772A632CDE3B5B67245000A52CDE3FACDE3B58B86CDE3FACDE3B5813C
S123E4E0B67145000A52CDE3FACDE3B58B86CDE3FACDE3B5816EFF786EFF796E207A6E203F
S123E5007BCDE3FDA645CDE3B5A66ECDE3B5A674CDE3B5A665CDE3B5A672CDE3B5A620CD07
S123E520E3B5A654CDE3B5A673CDE3B5A665CDE3B5A674CDE3B5A63FCDE3B5CDE445A64548
S123E540CDE3B5A66ECDE3B5A674CDE3B5A665CDE3B5A672CDE3B5A620CDE3B5A631CDE3BB
S123E560B5A630CDE3B5A62DCDE3B5A634CDE3B5A630CDE3B5A620CDE3B5A643CDE3B5CDAF
S123E580E2D4A10E273FA10F273CA10A27F1A10B27EDA10C27E9A10D27E5A100272EA10107
S123E5A02733A1022738A103273DA1042742A1052747A106274CA1072751A1082756A109C7
S123E5C0275BCCE57F81CDEB03CCE4F56E00766E3077CCE6266E01766E3177CCE6266E0290
S123E5E0766E3277CCE6266E03766E3377CCE6266E04766E3477CCE6266E05766E3577CC33
S123E600E6266E06766E3677CCE6266E07766E3777CCE6266E08766E3877CCE6266E097660
S123E6206E3977CCE626B679A1FF2730B678A1FF2721CDE665B679AE0A42BB78C7007CA647
S123E640CECDE42AC6007BCDE3B5C6007ACDE3B5CCE57F4E76784E777ACCE6354E76794EA5
S123E660777BCCE6354E78794E7A7B4E76784E777A816EFF7ECDE3FDA642CDE3B5A63ACDAD
S123E680E3B5A620CDE3B5A654CDE3B5A645CDE3B5A643CDE3B5A620CDE3B5A666CDE3B51A
S123E6A0A675CDE3B5A66ECDE3B5A663CDE3B5A674CDE3B5A669CDE3B5A66FCDE3B5A66E6E
S123E6C0CDE3B5A63FCDE3B5CDE445A631CDE3B5A620CDE3B5A62DCDE3B5A648CDE3B5A6F9
S123E6E065CDE3B5A661CDE3B5A674CDE3B5A62CCDE3B5A620CDE3B5A630CDE3B5A620CD31
S123E700E3B5A62DCDE3B5A643CDE3B5A66FCDE3B5A66FCDE3B5A66CCDE3B5CDE2D4A10E3A
S123E720272FA10F2717A1002707A1012709CCE71B6E007ECCE71B6E017ECCE71BC6007E69
S123E740A1012707A1002703CCE71BCDEC12CCE67281CDE3FDA643CDE3B5A63ACDE3B5A6F6
S123E76020CDE3B5A654CDE3B5A661CDE3B5A672CDE3B5A667CDE3B5A665CDE3B5A674CDFF
S123E780E3B5A620CDE3B5A654CDE3B5A665CDE3B5A66DCDE3B5A670CDE3B5A63FCDE3B5A6
S123E7A0CDE445A645CDE3B5A66ECDE3B5A674CDE3B5A665CDE3B5A672CDE3B5A620CDE3B4
S123E7C0B5A631CDE3B5A630CDE3B5A62DCDE3B5A634CDE3B5A630CDE3B5A620CDE3B5A686
S123E7E043CDE3B5CDE2D4A10E2703CCE7E481CDE3FDA64DCDE3B5A66FCDE3B5A664CDE3C0
S123E800B5A665CDE3B5A63ACDE3B5A620CDE3B5A641CDE3B5A62CCDE3B5A642CDE3B5A6E9
S123E8202CCDE3B5A643CDE3B5A63FCDE3B5CDE2D4A10A270BA10B270DA10C270FCCE82EA6
S123E840CDE4F5CCE7EFCDE672CCE7EFCDE752CCE7EF81CDE857816E007F6E00806E008125
S123E8606E00826E00836E00846E00856E01866E00876E01886E00896E018ACDE8CD816E8C
S123E880008B6E008CC60080B78CC6007FAE0A42BB8CB78C8986B98BB78BC60082AE3C4294
S123E8A0BB8CB78C8986B98BB78B81558BAE64B68C52CDE3FACDE3B58B8645000A52CDE3BD
S123E8C0FACDE3B58B86CDE3FACDE3B581CDE0C1A6D0CDE0D6A600CDE0D6C6007F62A470E9
S123E8E0CA0080CDE0D6C6008162A470CA0082CDE0D6C6008362A430CA0084CDE0D6A601C4
S123E900CDE0D6C6008562A430CA0086CDE0D6C6008762A410AA80CA0088CDE0D6C600896B
S123E92062A4F0CA008ACDE0D6CDE0C9CDE0C1A6D0CDE0D6A600CDE0D6CDE0C96E068FCDBA
S123E940E0C1A6D1CDE0D6A601CDE10CC7008062C7007FA601CDE10CC7008262C70081A6CE
S123E96001CDE10CC7008462C70083A601CDE10CA601CDE10CC7008662C70085A601CDE1CF
S123E9800CC7008862C70087A600CDE10CC7008A62C70089CDE0C9CDE9C581C60081CDE39C
S123E9A0FACDE3B5C60082CDE3FACDE3B5A63ACDE3B5C6007FCDE3FACDE3B5C60080CDE30E
S123E9C0FACDE3B581C6007FA407C7007FC60080A40FC70080C60081A407C70081C600825B
S123E9E0A40FC70082C60083A403C70083C60084A40FC70084C60085A403C70085C600860B
S123EA00A40FC70086C60087A401C70087C60088A40FC70088C60089A40FC70089C6008AC0
S123EA20A40FC7008AC6008081CDE3FDCDE43A45EF1EC6EF2ECDE3E0CDE44545EF2FC6EF9C
S123EA403FCDE3E0A688CDE42ACDE2D4C70087CDE2D4C70088A68BCDE42ACDE2D4C700855C
S123EA60CDE2D4C70086A68ECDE42ACDE2D4C70089CDE2D4C7008AA6C8CDE42ACDE2D4C779
S123EA800083CDE2D4C70084A6CBCDE42ACDE2D4C70081CDE2D4C70082A6CECDE42ACDE240
S123EAA0D4C7007FCDE2D4C7008081A648CDE3B5A665CDE3B5A661CDE3B5A674CDE3B5A699
S123EAC069CDE3B5A66ECDE3B5A667CDE3B56E026ECDE450CCEB22A643CDE3B5A66FCDE3AE
S123EAE0B5A66FCDE3B5A66CCDE3B5A669CDE3B5A66ECDE3B5A667CDE3B56E016ECDE4502F
S123EB00CCEB22CDE857CDE3FDA641CDE3B5A63ACDE3B5A620CDE3B5B691C1007C938CCC34
S123EB20EAD7A620CDE3B5A674CDE3B5A66FCDE3B5A620CDE3B5C6007BCDE3B5C6007ACD0E
S123EB40E3B5CDE445A654CDE3B5A639CDE3B5A632CDE3B5A63ACDE3B5A620CDE3B5CDE224
S123EB60D4A10E2732CDEBAFCDE92CB1902603CCEB5EB790CDEBAFA6C6CDE42ACDE475B71B
S123EB8091CDE4E0A643CDE3B5B691A1322708C1007C2703CCEB5E6E006ECDE450814E731D
S123EBA0723A7127094E72733A7327F520FA816E10716E1073CDEB9E6E10716E1073CDEB9F
S123EBC09E6E10716E1073CDEB9E6E10716E1073CDEB9E81CDEBAFCDEBAFCDEBAFCDEBAF0A
S123EBE0CDEBAFCDEBAFCDEBAFCDEBAFCDEBAFCDEBAF81CDEBD4CDEBD4CDEBD4CDEBD4CD29
S123EC00EBD4CDEBD4CDEBD4CDEBD4CDEBD4CDEBD4816EFF956EFF966E20976E2098CDE3F4
S123EC20FDA654CDE3B5A669CDE3B5A66DCDE3B5A665CDE3B5A620CDE3B5A669CDE3B5A6D3
S123EC406ECDE3B5A620CDE3B5A673CDE3B5A665CDE3B5A663CDE3B5A66FCDE3B5A66ECDFB
S123EC60E3B5A664CDE3B5A673CDE3B5A63FCDE3B5CDE445A645CDE3B5A66ECDE3B5A674E8
S123EC80CDE3B5A665CDE3B5A672CDE3B5A620CDE3B5A630CDE3B5A62DCDE3B5A636CDE3F4
S123ECA0B5A630CDE3B5A63ACDE3B5CDE2D4A10E273FA10F273CA10A27F1A10B27EDA10C40
S123ECC027E9A10D27E5A100272EA1012733A1022738A103273DA1042742A1052747A106A1
S123ECE0274CA1072751A1082756A109275BCCECAB81CDEDF6CCEC126E00936E3094CCEDE1
S123ED00526E01936E3194CCED526E02936E3294CCED526E03936E3394CCED526E04936E64
S123ED203494CCED526E05936E3594CCED526E06936E3694CCED526E07936E3794CCED521E
S123ED406E08936E3894CCED526E09936E3994CCED52B696A1FF2730B695A1FF2721CDEDE1
S123ED6091B696AE0A42BB95C70099A6CDCDE42AC60098CDE3B5C60097CDE3B5CCECAB4E84
S123ED8093954E9497CCED614E93964E9498CCED614E95964E97984E93954E949781A64855
S123EDA0CDE3B5A665CDE3B5A661CDE3B5A674CDE3B5A669CDE3B5A66ECDE3B5A667CDE3E5
S123EDC0B56E026ECDE450CCEE16A643CDE3B5A66FCDE3B5A66FCDE3B5A66CCDE3B5A66903
S123EDE0CDE3B5A66ECDE3B5A667CDE3B56E016ECDE450CCEE16CDE857CDE3FDA642CDE3C0
S123EE00B5A63ACDE3B5A620CDE3B5C6007EA10027B8A1012788A620CDE3B5A654CDE3B52A
S123EE20A63DCDE3B5C60098CDE3B5C60097CDE3B5CDE445A654CDE3B5A639CDE3B5A63290
S123EE40CDE3B5A63ACDE3B5A620CDE3B5CDE2D4A10E273DCDEEA9CDE92CB19A2603CCEECF
S123EE604DB79AC6007FAE0A42CB0080B79CC10099271ECDEEA9A6C6CDE42ACDE475B79B51
S123EE80CDE4E0A643CDE3B5B69BA1322703CCEE4D6E006ECDE450814E73723A7127094E80
S123EEA072733A7327F520FA816E10716E1073CDEE986E10716E1073CDEE986E10716E1032
S123EEC073CDEE986E10716E1073CDEE9881CDEEA9CDEEA9CDEEA9CDEEA9CDEEA9CDEEA95C
S123EEE0CDEEA9CDEEA9CDEEA9CDEEA981CDEECECDEECECDEECECDEECECDEECECDEECECDFA
S123EF00EECECDEECECDEECECDEECE8144617465206973200854696D652069732008536508
S123EF20742020203A204D4D2F44442F595910436C6F636B203A2048483A4D4D3A535310A3
S105FFFEE0001D
S9030000FC
